:020000040000FA
:10000000902F002031320000B78E00000532000032
:100010000532000005320000053200000532000004
:10002000000000000000000000000000DD2A0000C9
:100030000532000000000000752A000005320000B3
:10004000692B0000692B0000692B0000692B000060
:10005000692B0000692B0000692B0000692B000050
:10006000692B0000692B0000692B0000692B000040
:10007000692B0000692B0000692B0000692B000030
:10008000692B0000692B0000692B0000692B000020
:10009000692B0000692B0000692B0000692B000010
:1000A000692B0000692B0000692B0000692B000000
:1000B000692B0000692B0000692B0000692B0000F0
:1000C000692B0000692B0000692B0000692B0000E0
:1000D000692B0000692B0000692B0000692B0000D0
:1000E000692B0000692B0000692B0000692B0000C0
:1000F000692B0000692B0000692B0000692B0000B0
:10010000692B0000692B0000692B0000692B00009F
:10011000692B0000692B0000692B0000692B00008F
:10012000692B0000692B0000692B0000692B00007F
:10013000692B0000692B0000692B0000692B00006F
:10014000692B0000692B0000692B0000692B00005F
:10015000692B000053B94AB9002908BF00281CBF09
:100160004FF0FF314FF0FF3000F00CB8ADF1080C4C
:100170006DE904CE00F008F8DDF804E0DDE90223C3
:1001800004B07047704700BF2DE9F04786468C46A3
:100190000846089E154674461946002B40F0C1805B
:1001A0008542B2FA82F245D94AB1C2F1200300FA7F
:1001B00002FC954094402EFA03F343EA0C0C4FEAFC
:1001C000154EA8B2230CBCFBFEF80EFB18CC08FBA6
:1001D00000F943EA0C43994528D9EB1808F1FF3799
:1001E00004D2994502D9A8F102072B44A3EB0903D5
:1001F000A4B2B3FBFEFC0EFB1C330CFB00F044EA84
:100200000344A04214D92C190CF1FF3304D2A042AC
:1002100002D9ACF102032C44241A43EA07401EB170
:10022000D440002334607360BDE8F0874746DDE7C3
:100230006346F1E792BB431B01214FEA154EAFB273
:10024000200CB3FBFEFC0EFB1C330CFB07F840EA52
:100250000343984561D9EB180CF1FF3004D298455F
:1002600002D9ACF102002B44A3EB0803A4B2B3FB08
:10027000FEFC0EFB1C330CFB07F744EA0344A742C9
:100280004DD92C190CF1FF3304D2A74202D9ACF19D
:1002900002032C44E41B43EA0040C0E7C2F1200300
:1002A0009540944020FA03F12EFA03F34FEA154EDD
:1002B0009040AFB20343B1FBFEFC0EFB1C10190CC7
:1002C0000CFB07F841EA0041884522D969180CF176
:1002D000FF3004D2884502D9ACF102002944A1EBD9
:1002E00008019BB2B1FBFEFC0EFB1C110CFB07F7D7
:1002F00043EA01439F420ED9EB180CF1FF3104D2BF
:100300009F4202D9ACF102012B44DB1B41EA0041C0
:1003100093E76046E3E76146F7E76046A4E7634694
:10032000B8E7834206D916B9002108467CE7C6E93A
:1003300000E0F9E7B3FA83F78FB9834201D372453E
:1003400008D8BEEB020460EB030301209C461EB9F3
:10035000002169E73846FAE7C6E9004CF8E7C7F13B
:10036000200CBB400EFA07F522FA0CF42EFA0CF121
:10037000BA401C4320FA0CF3B8404FEA1449014339
:100380001FFA84FEB3FBF9F809FB18300B0C08FBCD
:100390000EFA43EA00439A4540D9E31808F1FF30CA
:1003A00004D29A4502D9A8F102002344A3EB0A0320
:1003B00089B2B3FBF9F809FB183308FB0EFE41EADA
:1003C00003418E452CD9611808F1FF3304D28E45C4
:1003D00002D9A8F10203214443EA0040A1EB0E0137
:1003E000A0FB02984145CE46434602D306D14D4577
:1003F00004D20138B9EB020E68EB0403002EA7D03B
:10040000B5EB0E0261EB030101FA0CFC22FA07F3D3
:10041000F9404CEA0303C6E9003199E74046C5E7D5
:100420004346D9E710F8012B11F8013B012A28BFF8
:100430009A42F7D0D01A7047034613F8012B002ACE
:10044000FBD1181A01387047F8B50C46154600AFB5
:100450000A4601460E4807F0D0FF844210D96E4686
:1004600088B06A460B4B241A53610323946142F807
:10047000103F00234FF4C651074801F0B1FDB546C7
:10048000AB68DB690BB128469847BD46F8BD00BF95
:100490000000002010B1000064AD00002DE9F04123
:1004A00004460D4682B000AFA3685B6C002B5BD1A5
:1004B000A3681B6C002B5FD1A3685B6B03BB286830
:1004C000391DC26907F067FF0246E8B1A368796881
:1004D0009B69002B31D020469847061E30DAE8464B
:1004E00088B06A46274BC2E90536032342F8103F1D
:1004F00000234FF4C251244801F072FDC54603E0C9
:10050000204698470028DAD1A3685B6A1BB12046D1
:1005100098470028C8D06868391DC26907F08CFF69
:100520000246D0B1A36879685B699BB120469847C1
:100530000146686807F09CFFB6E76FF05706CEE704
:100540003146286807F044FF002EDDD0A86805F08A
:10055000D3FFD9E76FF05701EBE7A3681B6A002BC5
:10056000A2D0204698479FE72046984700289FD171
:100570000837BD46BDE8F0812046984700289BD14A
:10058000F6E700BF37B1000064AD0000B0B586B03B
:1005900000AF284C204609F0A1FE034670B9264A58
:1005A0007A6102223A614FF48251244807F1100225
:1005B00001F016FD00201837BD46B0BDA3682BB171
:1005C0009B6C1BB120461E4A1E499847A3689B6A34
:1005D0000BB11848984717491B4800F03DF8C0B9BF
:1005E0001A4D1B4C4FF0FF324FF0FF33284605F0F9
:1005F000A7FF3946E269164807F01EFF01460028AA
:10060000F0D0386800F06CF80146204607F030FF63
:10061000E8E76C4688B06A460E4BC2E90530032312
:1006200042F8103F00234FF4C251044801F0D8FCB7
:10063000A546BFE790AA000058B1000064AD0000D5
:10064000C8AD00009D0400009F7B0000C802002090
:100650002000002069B1000038B580B3194DC5E90C
:100660000C01194809F03AFE30B3174800F0B8FE03
:10067000044610B110F1780F1CD10122002113485B
:1006800009F0ADFE0446A8B9114B124AAB60124BFB
:100690000D482B61114BA2F108016B61ED6100F077
:1006A000CDFE044630B94FF0FF324FF0FF3307481C
:1006B00005F046FF204638BD6FF01204FAE76FF0F0
:1006C0001504F7E7F00C0020B8AA0000100D002078
:1006D000A3B10000F80C0020A97B0000AF7B000054
:1006E0000A46014618B112B1024800F0D9BE6FF0B7
:1006F00015007047F00C00202DE9F04F91B00093E9
:1007000002F004030293C2F3C203013384070546D7
:100710000E46DDF868900392059340F0BB81041DFE
:1007200030B1072909D86FF01B0011B0BDE8F08F78
:1007300001F00706341DC6F10806009B4FF00008C3
:100740004FF0040A591E4FF0FF3347460193C3464A
:100750005346CDF810800DB1009A2260059800280C
:1007600000F3E8809848009A824203D39748824277
:10077000C0F0E080039AA4EB050E92074FEA9E00BA
:1007800000F103810F2F00F2B180002D00F00581F0
:1007900007F140020DEB020C019A0CF8200C0CF84A
:1007A000102C049801300490E7E07A285DD84B289B
:1007B0000ED8472859D829282DD8252852D054D8C2
:1007C00020287AD02338D0F1000B4BEB000B74E0DB
:1007D0004C382E2849D8DFE800F07048484848488F
:1007E0004848484848484B48484848484848485975
:1007F000484B4B595959704B6D487048184B184825
:1008000048827F4B48484B487F0000204FF0000B48
:100810004FF0040A38E001222A38C0B202FA00F090
:1008200010EA0E0F49D110F0625C2FD110EA020BD2
:1008300043D06046013C5444B4FBFAF40AFB04F490
:10084000002D61D0A3EB050CA4446645FFF46BAF0B
:10085000002868D1042B47D159F8043B23600423B6
:1008600004342AE0019A013A01924FF0000B24E08F
:1008700011F8010C6C2834D1002011F8023C834699
:100880006C2BC5D14FF0080A5346D3E709F107098D
:1008900029F00709073424F00704F9E802AB35B161
:1008A00006982044B0423FF63EAFC4E900AB4FF09B
:1008B000000B08344FF0080A534611F8010F0028C6
:1008C00078D0BBF1000F7FF470AF2528F5D14FF041
:1008D000010B019B013301934FF0040AECE75846EA
:1008E00094E700208346A5E7082B02D06FF015009F
:1008F0001BE709F1070929F00709F9E80223C4E910
:10090000002308230834D8E768B9042B02D109F181
:100910000409A4E7082BE9D109F1070929F007091F
:1009200009F10809EDE7059A013A059259F8042BF7
:10093000009210E7039A900720D54FF0010CA4EB2A
:10094000050E4FEA9E00BEF5007FCFD20F2FCDD807
:10095000F5B107F140020DEB020E019AC0B20EF89C
:10096000200C0EF8102CBCF1000F3FF41AAF60F011
:100970007F000EF8200C08F101080137C5F10802CC
:100980004FF6DA7E0434069297E74FF0000CDAE770
:10099000BCF1000F01D00136EFE7029802360028C3
:1009A000EBD10098CDE90631FFF746FDDDE90631D0
:1009B0000644E2E7631BB3F5806F97D245B9A6F111
:1009C0000804E018B1E600BFACA9000044BD000077
:1009D000029A9B0828602B709DF81030C2B1EB7012
:1009E00085F80280B8F1000F05D0002208A8C5F1F3
:1009F000010C97420ED14FF0000AC5F101030DF131
:100A0000200901930DF1300B574512D1601B8CE684
:100A10006B70E5E710F8013B190608D504EB0C0EE6
:100A2000764503F07F03FFF47EAE04F8013B01320C
:100A3000DFE7B8F1000F03D099F90020002A17DB97
:100A4000029BD3B11AF80B2004F8012B0022019B62
:100A5000981820448642FFF466AE99F80000009989
:100A600004F8010B2046039209F031FF039A144465
:100A70000AF1010A09F10109C6E799F8002055F8C1
:100A800022300093029B009845F82230FFF7D4FCF7
:100A9000421CDCE76FF00D0047E600BF2DE9F04F88
:100AA00095B000AFBB61BB6F0446C3F3C0038A4679
:100AB00090F802B07A623B6141B9457800780BEB5F
:100AC00080002044554517D8A0EB040AE3787B61E9
:100AD000BBF1000F02D0BB6FD80716D47B6953BBA4
:100AE0007B6A1BB151462046BA699847554628464D
:100AF0005437BD46BDE8F08F461C3046FFF79CFCDE
:100B0000013030440AF1010ADCE7237862683B6275
:100B10009B00FB603B6AFA6104EB83097B6A002B54
:100B200040F0FF80C8460026554609EB0B0AD04529
:100B300051D1D94413E0BB6F9907D1D52378994699
:100B40003B629B00FB60636804EB8909FB617B6A85
:100B5000002B7AD15546BBF1000F4FD15E46BB6FDB
:100B600013F0050F0CBF4FF0020B4FF0010B7B6928
:100B700009EB430ABB6F03F002037B62D145B6D099
:100B800019F8021B19F8013C54F82380AB4B984527
:100B900002D3AB4B984538D33B69002B42D0F86960
:100BA00007F03DF800283DD0E8468AB06A46A54BDC
:100BB0005361FB69C2E906314FF400731384A24B01
:100BC00042F8103F00234FF41251A04801F008FAF8
:100BD000023DC546D2E718F8013B54F82300FFF761
:100BE0002BFCFB6F01303BB1D7F880309E423EBFFB
:100BF000FB6F23F816000136054498E7BB6F13F02E
:100C000004061CBF7E6AD944A9E73B6923B1F86991
:100C100007F005F80028C7D1BB6FDA0705D4A5EBAC
:100C20000B05ABE77B6A002BA8D04046FFF704FC1E
:100C3000FB6F43B1D7F880309E423FBFFA6F431C31
:100C400022F816300136054498E7BBF1000F6ED04C
:100C5000BB6F13F004066DD0D846002607F14000A4
:100C60005A46494609F033FE7B69D9445B007B60F4
:100C70007B6909EB4303BB60BB6F03F002033B607E
:100C8000BB684B4558D1B96F6378B86F890748BFC7
:100C9000002106EB030258BF4FEA5801C507D2B244
:100CA00000F19A8010F0040F14BF40460020FB6151
:100CB0006270A070E1702046BA69F9687B6A984753
:100CC000051EFFF614AF3B6A41462370FB69BA6903
:100CD00063707B6984F802B0E37007F140007B6ABF
:100CE0009847B0F10008C0F2A480FB68AAEB0B01A2
:100CF000C91A7B684846C91ABA697B6A98470028AE
:100D0000C0F299804FF0000BA84408EB000507F1F2
:100D1000300AB34562D30021BA6908467B6A984716
:100D2000E5E65E464FF0000807F1300098E75E46C2
:100D3000D84699E7B04697E719F8021B3F4B19F8D8
:100D4000015C54F82500984202D33D4B98421DD3D4
:100D50003B6923B1F86906F062FF002890D13B6837
:100D6000FBB908F1280307F1280208F1010003EBA1
:100D7000020C07F1500308F1020853FA80F00CF856
:100D8000101C5FFA88F800F8105C79E73B692BB11A
:100D9000F86906F044FF00287FF472AFBB6FDB07F1
:100DA00009D506F1280307F12802711C9E1806F8E0
:100DB000205CCEB264E7BB6F58077FF561AF08F1E6
:100DC000280307F1280208F1010103EB020808F8E3
:100DD000105C5FFA81F853E7002068E71BF80A30DF
:100DE00054F8239087F82F30FB6FFBB133F81B804A
:100DF0000121BA697B6A07F12F00984700281ADBA6
:100E00000544B8F1000F06D14846FFF715FB00F185
:100E100001081FFA88F841464846BA697B6A984734
:100E2000002808DB05440BF1010B72E7D7F87C8042
:100E3000DEE745465BE6054659E600BFACA9000083
:100E400044BD0000B0B100000400000114AD00007A
:100E5000014B1860704700BF4000002080B5054678
:100E60000E461746984605F0DBFF034609F094FD51
:100E70000446DFF81890424649F8003039463046BB
:100E8000A84754F8090002F04DFA00BF080000001E
:100E90002DE9F047058B04462807904611D4022916
:100EA00005F0070540F0CD80204607F09BF978B1AA
:100EB0000138218B042811D8DFE800F0C3106D85BC
:100EC000950001290CBF45F0100545F0200525834C
:100ED00088F31188BFF36F8FBDE8F08701F0070A30
:100EE000AA4500F0A6800027B9463E46A368002B1D
:100EF00000F0BD8041F00801218388F31188BFF321
:100F00006F8FA168002900F0BB800D68002900F0F8
:100F1000B780334652462046D1F80480C047002DA2
:100F200076D02B6829461D46F0E701F007035A1FCB
:100F3000012A1BD8002221F00701062B276889B25D
:100F4000C4E9002209D13B4603E0628B013262838F
:100F50001B68002BF9D141F002012046218307F0E4
:100F600041F900287BD041F0200177E0042B0AD121
:100F700021F0070189B22046218307F033F910B12F
:100F800041F020012183218B01F0070AAA4550D0AE
:100F90000027B946AAE7236921F0070141F00601BD
:100FA000062DD3F8009021832DD1B9F1000F40D048
:100FB00041F00801218388F31188BFF36F8F204629
:100FC0003949C84729E021F00701236941F00401AC
:100FD00089B2042DD3F804902183E6D000274FF086
:100FE000040A3E4682E721F00701236941F005012A
:100FF00089B2052DD3F808902183D6D000274FF071
:10100000050A3E4672E700274FF0060A3E466DE7A6
:101010002B4687E7B9F1000FD1D14FF02003EFF352
:10102000118883F31288BFF36F8F238B23F008039B
:101030002383258BEA062ED525F01003238305F0A4
:1010400007056669218B002EBFF66FAF0023276866
:10105000C4E9003321F0070141F001012183218B14
:101060004FF0000901F0070AAA457FF43FAF002FB7
:101070009BD041F00801218388F31188BFF36F8F63
:10108000002FC7D03D68394633465246204607F008
:10109000D5F82F46F4E7AB067FF51AAF25F020030D
:1010A000238305F00705FFE669820000044608B5C2
:1010B0004FF02002EFF3118382F31288BFF36F8F9A
:1010C00003F048FC204602F0E3F8034806F0D0FDA8
:1010D00001F0C4FBFCE700BF64B2000000F01F0297
:1010E00040090DD001280DD1094B03EB8203D3F841
:1010F000002222F0E04242EA0171C3F80012704778
:10110000044BF2E70023803253F82230FFDE00BFA9
:10111000002884500025845038B50124104B114D0F
:10112000C3F8004502230321C5F8D0360020FFF79D
:10113000D5FF20460321FFF7D1FFC5F80447C5F8C6
:101140000449C5F8004B0024074D012115F8010B97
:101150000134FFF7C3FF082CF7D1002038BD00BFD2
:1011600000100050004000508DB2000007B50DF196
:10117000070008F0B2F9114B98421CD14FF480627D
:101180000F4B1049C3F8B8254FF40062C3F83C2553
:101190009DF8070008F08DF90B499DF8070008F04D
:1011A00083F901209DF80730984003F031FD0020BD
:1011B00003B05DF804FB6FF00B00F9E70000AD0B26
:1011C00000A002502CA0025028A10250052370B5A7
:1011D000144D154E2C780134B4FBF3F303EB830369
:1011E000E41A08F04FF9114A137823B156F8243065
:1011F000C01A072814D94FF05023D3F8141141B165
:101200000021C3F81411D3F814312C700CB9012348
:1012100013702C7808F036F946F82400012070BDD0
:101220000020FCE701170020280D002000170020F7
:1012300048B1054B054A1B68B3FBF2F35843044B16
:1012400043F0010318477047E000002040420F00C0
:10125000C0AD000070B5049CC4F30726304603F00F
:101260007BF9E5B20146284608F02FF9002201205B
:10127000074BA40B04F0FC041A51A84003F0CEFC69
:10128000304603F01DFB2846BDE8704003F03ABD30
:1012900080A00250F0B583B000AF381D03F02CFDE4
:1012A000284B98424BD103F0EDFA041E13DA38793B
:1012B00003F028FD6D4688B06A46234BC2E9053429
:1012C000032342F8103F00234FF4C2511F4800F09F
:1012D00087FEAD462FE040F607031D4D7C71AE68DA
:1012E000FB8074687B6814B96FF05704E2E708214B
:1012F0002846184AA047041EDCDB3369002BF3D0D4
:101300000122082128469847041ED3DB01203B799F
:10131000984003F07DFC78793D79FE7908F09DF8DE
:101320000146284608F0C5F80B4BB60045F00045CD
:101330009D51002CBED120460C37BD46F0BD6FF04C
:101340001204B7E70000AD0B99B2000074AD0000C5
:10135000A4AA00005D13000080A102502DE9F34112
:10136000144683681B690BB100229847C4F3072613
:10137000304603F0F9F80546304608F06EF84FF0B5
:101380000008E7B20146384608F0A3F8104B220ED9
:10139000920043F80280304603F0DEF80D4A4FEA2F
:1013A000943C0CF0FC0C47F0004342F80C30014632
:1013B000384608F079F8084B05F1320200933046C0
:1013C00043460194520008F051F802B0BDE8F081A4
:1013D00080A1025080A002505512000003F0FABA1A
:1013E0007FB570B9124B1348059302234FF4825115
:1013F00004AA049307F0A8FA6FF0150007B05DF88F
:1014000004FB836863B90C4B0A48059302234FF42D
:10141000825104AA049307F097FA6FF00400EDE7F5
:101420001B681BB107B05DF804EB18471846E5E7E9
:10143000CAB200002CAD0000DBB2000030B587B0AE
:1014400008B101B16AB9134B1348059302234FF455
:10145000825104AA049307F077FA6FF0150007B0E1
:1014600030BD84680CB1E56865B90C4B0A4805933A
:1014700002234FF4825104AA049307F065FA6FF037
:101480000400ECE741F8040BE36807B0BDE8304026
:10149000184700BFF9B200002CAD0000DBB200001D
:1014A00030B51346044687B068B91A4B1A480593FD
:1014B00002234FF4825104AA049307F045FA6FF017
:1014C000150007B030BD006860B9144B1248059391
:1014D00002234FF4825104AA049307F035FA6FF007
:1014E0000100EEE782680AB1956865B90C4B0A48BD
:1014F000059302234FF4825104AA049307F024FABF
:101500006FF00400DDE70A46AC46616807B0BDE84D
:101510003040604725B300002CAD000036B300001A
:10152000DBB200000020014B18607047000007206C
:1015300030B50C460E4985B00291D0F8A41105468D
:10154000CDE9003100F1E0014FF0FF33204604F017
:10155000FBF950B9012384F86430D5F8A03123B1E8
:10156000204605B0BDE83040184705B030BD00BF8B
:101570003F8A000038B50C461146054607F061FA6F
:10158000034638B92846044907F05BFA03460020B1
:10159000236038BD0120FBE710BC00002DE9F04FAF
:1015A000012381460569466885B005F55777D7E878
:1015B000EF2F002A03D1C7E8E13F0029F7D10CBF84
:1015C0001A46002240F0B180B368B16A05F5E078B0
:1015D0001C1F104607F0BAFA84425FD8013A00F0A7
:1015E0009E80B2FA82F24FF00044D44072682046E6
:1015F000073222F00302C5F85822B16A07F0A6FAB2
:10160000C5F85C02B36A40466343033323F0030327
:1016100002EB4302230103EB4403093323F00303EA
:1016200003EBC403C5F850221A440832C5F84C2213
:101630007368C5F85442C5F848323D4BC5E9A76305
:10164000316800F0BDF9044630BBD9F804A0D9F8E0
:101650001090DAE9073409F52E7B012B584608BFB4
:10166000103C08F008FF0023DAF8240031494FF459
:10167000806201EB802100935846234605F07EF8F6
:1016800009F52A702C4908F0C8FEDAF814008368BE
:101690005C682CB96FF05704002139E0013298E7FB
:1016A0004B46264ADAF81810A04704460028F3D122
:1016B000DAF8140083681B69002BEBD00122DAF8FA
:1016C0001810984704460028E6D11D4B2846C5F857
:1016D000A0311C4BC5F8A4311B4B0393D5F808323D
:1016E0000293D5F80032CDE90083D5F86032B26AB2
:1016F000D5F8581300F02CF904460028CCD105F198
:10170000E00004F0CFF90028C5F860030ADB0221ED
:10171000384607F0CBF9204605B0BDE8F08F6FF0F2
:101720000B04B9E76FF01504B6E76FF07704F2E742
:10173000958A0000501B00207B8A00006F8A000001
:101740004D170000238C0000DD8A000013B504460D
:1017500040B100230122CDE90032074BD0E9091244
:1017600004F0A6F8A36E1B6823B1E06E02B0BDE8DA
:101770001040184702B010BD10BC000013B504465D
:101780000846216901F55771D1E8AF1F022910D130
:1017900093B1A0B10121CDE900311346D0E909127E
:1017A00004F086F8074B984208BF6FF00B0002B0B8
:1017B00010BD6FF00F00FAE76FF04C00F7E76FF025
:1017C0000100F4E72EF8FFFF2DE9F74388461546A0
:1017D000066906F55773D3E8AF3F022B5FD1136854
:1017E00023B96FF0150003B0BDE8F0831B78002B20
:1017F000F7D0D6F85893B9F1000F33D106F5D47766
:101800004FF0FF324FF0FF33384604F0BFFD304653
:101810002A6801A9FFF7AEFE019C1CB9384607F003
:1018200043F9DEE705F10803A3666B6984F8649069
:10183000E366E46360B1384607F036F92146304686
:10184000236E2A68FFF774FE0020C8F80040CAE73C
:101850002022296804F1400009F060F8384607F0BA
:1018600023F9F1E730460F4907F0EBF8044600286A
:10187000B7D005F1080383666B69C063C3660023B4
:1018800080F8643020222968403009F047F8224669
:101890000121304600F03EF80028D5D0A1E76FF0D6
:1018A0000F00A0E710BC00002DE9F04F05460E46E2
:1018B00090460027D0F8A8A085B0AAF5AA742146C2
:1018C0003046FEF7AFFDE0B9114BA4F1400B029397
:1018D000DAF810303246CDE9008329464FF0FF3365
:1018E0005846AAF5CA7904F02FF860B9702301228E
:1018F00003FB079383F86420DAF80C300BB15846E9
:101900009847703417B105B0BDE8F08F0127D6E7CE
:10191000858C00001FB5144690B18AB1012912D1FF
:101920000A4B00F1E0010293D0F8A4314032019358
:101930004FF0FF332046009304F006F804B010BDCA
:101940006FF01500FAE70020F8E700BF858C000073
:101950002DE9F04387B00E46DDE90E811446DDE93E
:1019600010251F4630B329B3DFF850C000F1E0095D
:10197000002D08BF65469EB9CDE9034400F5CA7441
:101980002046059608F089FC03ABCDE900432A46C2
:101990003B464146484604F0ABF807B0BDE8F0834B
:1019A000002241460E9248462A4607B0BDE8F04361
:1019B00004F0C6B96FF01500EFE700BFA9180000EA
:1019C000F0B50E46044689B000286FD001230246C8
:1019D000C3630023D0F89810364F403040F80C7C99
:1019E00042F8301FCDE901334FF0FF330093C36D50
:1019F00007F015FF304A06AB92E8030083E80300C6
:101A0000184603F067FE0546D8B904F1340003F028
:101A100043FE0546A8B93946284805AA07F0DBFE6B
:101A2000054670B9059B9A6872B10C33D4F89400DE
:101A3000C4F8A03007F057F9C4F8D40030B96FF0FB
:101A40000B05284609B0F0BD0346EFE7D4F8940033
:101A500007F049F9C4F8D8000028F0D0D4F88C3049
:101A6000D4F8A010C4F8A8300423C4F8AC30C4F8EB
:101A7000C4300223A362124BB4F89420D4F8D4707B
:101A8000C4F8B810C4F8D010D4F89010236204F150
:101A9000A403A4F8B020C4F8A470C4F8C010A4F83B
:101AA000C820C4F8BC00A661E362CAE76FF0150560
:101AB000C7E700BF60B30000A0AD00006AB300003C
:101AC00000AE00002DE9F047044607464FF001093B
:101AD000DFF8508014B93846BDE8F08794FAA4F5D1
:101AE000B5FA85F509FA05F32E0108EB05156FEA3D
:101AF000030A24EA03042B7B002BEBD058F80630B2
:101B00001B694BB94644736804222846196807EAE2
:101B10000A0700F051FADDE7284698470028D9D196
:101B2000F0E700BF84AD000030B5002289B00F4956
:101B30000F4808F01DFE002200230024CDE90623F3
:101B40000E230C4DCDE903344FF440722846CDE905
:101B50000144094B0949009404F090FB08492846C8
:101B600008F01BFC204609B030BD00BF851B0000FB
:101B7000C80A0020400600205D1E0000501F002003
:101B800072B30000014804F0B7BC00BFB8020020E7
:101B90002DE9F04780461F480F4607F0F6F8064645
:101BA000002830D000252846BDE8F087237B73B19C
:101BB0002368DB680BB12046984723681B69D3B9BB
:101BC000636804222046196800F0F6F901361034E3
:101BD0004C45EBD3B8F1000FE5D0002DE2D02846FC
:101BE000FFF770FF0546002FF7D000214FF4A470D7
:101BF00005F0FCF8F1E7204698470028E0D00AFA03
:101C000006F31D43E2E705464FF0010A024CDFF8F8
:101C10000C90DDE74C0D002084AD000094AD000079
:101C2000014B53F82000704740AE000008B5034652
:101C300008462BB1044A136000F072FC002008BD76
:101C40006FF01500FBE700BF7000002010B5044CDA
:101C5000237813B9034804F04FFC0123237010BD0F
:101C600002170020B802002010B50446064807F00D
:101C70008CF83CB1054BD3E8EF1F0139C3E8E21FF4
:101C8000002AF8D110BD00BF440D0020480D0020EF
:101C900000200146034BD3E8EF0FC3E8E21F002A00
:101CA000F9D17047440D002070B5FFF7F1FF0546EC
:101CB000074C084EB44200D370BD63685B792BB10A
:101CC00023685B6813B12946204698471034F1E732
:101CD00084AD000094AD000010B5044C04492046CA
:101CE00006F0D7FC034B1C6010BD00BF04020020AF
:101CF0002CAE00003C0D002008B50023074A4FF42D
:101D000000411370064A07481360074A1360FFF743
:101D10008DFFBDE80840FFF7DFBF00BF03170020BD
:101D2000440D0020878D0000480D00200146002250
:101D30000023014806F0CEBC04020020014806F052
:101D400067BD00BF04020020024B0146186806F080
:101D5000B1BD00BF3C0D0020014806F0E7BD00BF4B
:101D60000402002070B5264B1878002847D0FFF7F2
:101D7000E5FF054670B1234BD3E8EF1F0139C3E8F7
:101D8000E21F002AF8D1204C204EB4422DD3284621
:101D9000FFF7DAFF1E4B1F4C1B68002B19DD08F004
:101DA000A0FC4FF47A72A0FB020302FB0131C30BCB
:101DB00043EA4143D4E900209B1A40F2E9324FEA5A
:101DC000D13161EB0001934271F1000101D3FFF7C2
:101DD0006BFFD4E9003213F57A7342F10002C4E9D3
:101DE0000032BDE87040FFF7B7BF63685B7923B18D
:101DF0002368294620461B6898471034C5E770BD04
:101E000002170020480D002084AD000094AD0000B2
:101E1000440D0020C00A002070B50D4D297861B92D
:101E20000120FFF7B5FE0B4C0B4EB44206D3FFF773
:101E300099FF0028FBD101232B7070BD63685B798B
:101E40001BB1236820469B6898471034EDE700BF1C
:101E50000317002084AD000094AD000000212DE99F
:101E6000F0470846FFF794FE044658B340F267680F
:101E70004FF0000908F090FD1B4B1C4A1B581360E3
:101E800033B11B4B1B68092B02DD1A4804F034FBED
:101E90000025194FDFF85CA044B12046FFF712FE81
:101EA000044618B94FF0FF384FF0FF39FFF75AFFDB
:101EB000064628B9B5B942464B46504604F040FBA9
:101EC0003546E9E74FF0FF384FF0FF39D2E72B688E
:101ED0009B691BB100222846114698471035BD4228
:101EE000F5D3E8E7054DFAE708000000400D0020B3
:101EF000480D0020B802002094AD000084AD000021
:101F000013B5184806F041FF174B1B787BB14FF013
:101F10002003EFF3118483F31288BFF36F8FFFF771
:101F200021FF84F31188BFF36F8F02B010BD0F4BF8
:101F30001B68002BF9D050B9002200230C48CDE9D2
:101F400000234FF40042002305F0AEF9EDE7092825
:101F5000EBD1074808F018FC064802B0BDE8104075
:101F600004F0CABA480D002003170020400D0020DD
:101F7000C80A0020B802002010B5064B04461B68B2
:101F800098472146A060044806F022FCBDE81040B6
:101F9000FFF7B6BF7000002004020020044A054B82
:101FA0009B1AB1EBD30F34BF52F8310000207047B9
:101FB000F4AC000084AD0000084B10B4C31A4468B0
:101FC0001B110133237143689A7101224368196020
:101FD00043685A7110BCFFF739BE00BF84AD0000E2
:101FE0002DE9F04F8FB0C1F34A2804AF0D4691465A
:101FF000B8607B600C0DB8F1000F63D000264FF085
:10200000040B4FF00A0A07F11403C7F80C80C7E964
:1020100007667E620193CDF808B0CDF800A007F105
:102020001C0332464846F968FEF738FDB0F5006FEC
:1020300003461CD36C468AB0D9F8041004AB26487A
:102040001A46C3E9050140F2FF71D9614FF40071EE
:102050001984224B42F8103F4FF412513346204866
:10206000FFF7BEFFA5462C37BD46BDE8F08FC0F395
:102070000A0804F11700184420F0070080083B60AC
:10208000FFF754FE68F35325044690B13B6800F116
:102090001001C7E9083607F11403F961CDE900A37F
:1020A000CDF808B048460F4AF96807F11C03FEF75F
:1020B000F5FC68F353252A4620467B68B96806F08C
:1020C00096FED0E704F1170020F007008008FFF724
:1020D0002DFE0446EDE700BF87B3000004000001B9
:1020E00034AD0000C38D00002DE9F04F87B00446E9
:1020F000DDE9105ADDE912690F4693469846A6B30A
:102100001021334652460020CDF80090CDF81490AF
:10211000FEF7F2FA014605F117000844144B04F0EB
:1021200007040BF0070BE40020F0070003EA41234B
:1021300044EA8B1480081C430391FFF7F7FD44EA3F
:102140000554054640B13EB1334652460399CDF899
:1021500000901030FEF7D0FA434622463946284612
:1021600007B0BDE8F04F06F042BE3146D3E700BFEE
:1021700000FE0F000EB403B503AB53F8042B014669
:102180000448019301F0B6FA02B05DF804EB03B025
:10219000704700BF558E0000CA0605D48B064CBFA1
:1021A00002490349FFF7E6BF704700BF0FBC0000BC
:1021B0000EBC00002DE9F04F89B09B46DDE9167694
:1021C0009DF84C3004460493DDE914930593049B79
:1021D0000D460692002B00F0878006F00803079357
:1021E00006F0EDFD06F0020A024600284BD020461C
:1021F0008549FFF7BFFF8046BAF1000F08D016F0FF
:10220000440F42D12A4620468049FFF7B3FF80445D
:1022100006F001035BB17E4B049A204653F822205E
:102220007C4B7D49002A08BF1A46FFF7A3FF06F042
:102230000803002B55D0794B049A204653F82220EE
:102240007749FFF797FF0546069B2BB11A462046B4
:102250007449FFF78FFF0544BBF1000F05D05A46C4
:1022600020467149FFF786FF05444544B9F1000F48
:1022700049D1002F4FD1F30700F1C08031462046ED
:10228000FFF78AFFB4E08046B6E7684B186800287D
:10229000BDD0674B4FF47A7E1B684FF46162B5FB8B
:1022A000F3F5B5FBF0F300FB13550EFB05F5B3FB9F
:1022B000F2FAB5FBF0FC3C2102FB1A3200FB1C5584
:1022C000B2FBF1F30EFB05F5B5FBF0F501FB1322B4
:1022D00020460092CDE901C552465649FFF74AFF14
:1022E00095E706F00805AFE7BBF1010F06D1B9F19C
:1022F000000F64D1002F7BD000250CE0B9F1000F56
:10230000F8D04D485CE04D484B4622464C4905F01C
:1023100055FC002F68D0DFF82C91DFF82CA1102F8E
:1023200031462046B8464FF0000B28BF4FF010084A
:10233000FFF732FF5D4545DC059B514620461A7884
:10234000FFF718FF4FF0010B1BF0070F03D14946B1
:102350002046FFF70FFFD8453BD9059B5146204645
:1023600013F80B20FFF706FF0BF1010BBBF1100F69
:10237000EAD14FF0000B20463449FFF7FBFE5A46E6
:10238000059B20469A5CA2F120015F2928BF2E22DE
:102390002F49FFF7EFFE0BF1010BBBF1100F1DD022
:1023A0001BF0070F03D149462046FFF7E3FED8454F
:1023B0005A46E5D849462046FFF7DCFEEBE71F48C2
:1023C000049DA1E749462046FFF7D4FE0BF1010B1F
:1023D000B0E720461F49FFF7CDFEC5E7059BB7EBE9
:1023E0000807434405939AD1049B002B7FF443AF25
:1023F000204609B0BDE8F04F06F01FBD2046054A53
:102400000549FFF7B7FE39E7CBB30000CFB30000B3
:1024100050AE0000C6B30000F4B3000064AE00008C
:10242000F7B30000FDB3000001B40000540D00201C
:10243000500D0020D8B30000838E0000558E0000A0
:10244000F5360000DABB000006B400000CB4000052
:102450000EB40000D8BB00002DE9F0410F884B6896
:1024600005460C4690468E6886B0C7F382175BB16E
:10247000144A9B1A43F3CF01002920DB2078C0F3D4
:10248000C200FFF78BFD0346214651F8102B6088F0
:10249000C2F34A22002A01EB020408BF00210022F5
:1024A000C0F30B10CDE90408CDE9021428463146EB
:1024B00001970092FFF77EFE06B0BDE8F081002391
:1024C000E2E700BFF4AC000042F20F7373B58B4239
:1024D00028BF0B4605680446052168460D4A05F0ED
:1024E000E5F80646636828460B225B680A4906F051
:1024F00097FC63683246694628465B6806F090FCA4
:1025000063681B2228465B68044906F089FC02B018
:1025100070BD00BF75BC00002DB4000011B40000F8
:1025200000210123064A904206D8064A01B9012338
:102530001360054B18607047012140085B00F2E70B
:1025400040420F00500D0020540D00200122014B8D
:102550001A70704704170020014B00201960704763
:102560006C0D00200122024B02481A7006F065BC77
:102570000517002094AE00000148FFF7A5BF00BF7B
:1025800094AE000010B5064B0C461868FFF748FBE8
:102590002146BDE8104003460F220248184700BFFD
:1025A0006C0D002094AE000010B9074B18707047F6
:1025B000064B1B781BB141F2883007F08ABEA4207D
:1025C000002104F013BC00BF0417002005170020F1
:1025D0002DE9F84380460E460424DFF870901C4F26
:1025E00099F8005095B903F03FFC28463246414621
:1025F00003F0ECFB054603F041FCE5B101233B7021
:1026000099F8003073B93046BDE8F8833246414648
:10261000002003F0DBFB0546EFE72046651EFFF7D1
:10262000C3FF2C46002003F015FC0028EBD03B78BC
:10263000002BF2D1E7E73B78002BE4D0013C2046A9
:10264000FFF7B2FF3B78002BCAD1DCE7051700206B
:1026500004170020014804F0E7BE00BFA4AE00004C
:1026600038B5044618B90F4B0F485B689847616846
:10267000B1F5683F10D0B1F5680F0DD00B4DA942F0
:102680000AD011F46861206807D00146084807F0B5
:1026900058FE00232360656038BD142208F024F939
:1026A000F9E700BF9801002069B400002C5F5CA925
:1026B0007012002008B560B34368B3F5683F0ED0D0
:1026C000B3F5680F18D0144A934220D000684FF039
:1026D000FF324FF0FF3303F059FE58B115E00122ED
:1026E0000368D3E8EF1F002903D1C3E8E02F0028D7
:1026F000F7D10AD1002008BD0368084A1B7803F50A
:10270000807352F82330002BF4D00548F3E70548D6
:10271000F1E76FF4E040EEE72C5F5CA900000350A6
:10272000E98FFFFFEA8FFFFF08B520B34368B3F5D9
:10273000683F09D0B3F5680F13D0114A93421DD0FA
:10274000006803F09DFE14E000220368D3E8EF1F49
:10275000012903D1C3E8E02F0028F7D109D00948A7
:1027600008BD00210368084A1B7803F5807342F80E
:1027700023100020F4E76FF4E040F1E70348EFE7AF
:102780002C5F5CA9E98FFFFF00000350EA8FFFFF79
:1027900010B5044618B91D4B1D485B68984763681F
:1027A000B3F5683F2FD0B3F5680F2CD0194A934288
:1027B00019D1236803BB4FF0FF324FF0FF3321469E
:1027C000154803F0EFFC08B923681BB90F4B1348F9
:1027D0005B68984714220021206808F085F84FF4C0
:1027E0006863636008E0B3F5683F0DD83A2B03D007
:1027F00040F6BA629342DED1206807F0E9FD6368D3
:1028000043F03A03636010BD054AF3E798010020E6
:1028100069B400002C5F5CA9701200208FB4000026
:102820003A00003A08B5064940231422054807F04B
:102830007AFDBDE808400449044804F067BE00BFC3
:10284000700D002070120020ACAE0000C0AE000081
:10285000014910220A60704710ED00E072B6404056
:1028600080F31188BFF36F8F01B5FEF7AFFC00282E
:1028700002D0BFF34F8F30BFBDE8014062B6BFF357
:102880006F8F704772B6494081F3118801B5FEF72A
:102890009DFC002802D0BFF34F8F20BFBDE8014050
:1028A00080F3118862B670472DE9F04781460C46E7
:1028B00000AF00294CD0D1E900126E468AB0A3685F
:1028C0006D464FF0050AA8462548C5E90723C5E926
:1028D000050148F810AF002342464FF4215121482A
:1028E000FFF77EFBD4E90312B5466369AD461E4887
:1028F000C5E90723C5E90501C5F810A00023424634
:102900004FF421511748FFF76BFBB54688B0E369D8
:102910006D464FF0030AA846144AC5E9052348F856
:1029200010AF002342464FF4C2510E48FFF758FB48
:10293000B546A369AD460E4AC5F810A0C5E9052302
:10294000002342464FF4C2510648FFF749FBB54603
:102950002146484603F098FABD46BDE8F08700BF1F
:10296000BCB400005CAD0000EBB400001AB5000080
:1029700029B5000040B2002807DB01234109034AC2
:1029800000F01F00834042F82130704700E100E072
:1029900040B200280CDB01220649430900F01F0069
:1029A0008240203341F82320BFF34F8FBFF36F8F56
:1029B000704700BF00E100E0054B420953F82220B8
:1029C000012300F01F0003FA00F01040704700BF21
:1029D00000E100E040B2002801F10101ACBF00F1CC
:1029E0006040064B4FEA4111C9B2ABBF00F56140F0
:1029F00000F00F0080F800131954704714ED00E048
:102A000030BFFFF7FDBF00BF0B4A08B50B4B22F0EC
:102A10007F029A60BFF34F8FBFF36F8FD3F8882088
:102A200022F47002C3F8882003F0EEFA04F070FA82
:102A300000F0F2FB03F032FB0000000000ED00E0CC
:102A4000094A0A49936809685867996708494B68B1
:102A500043F080534B60002383F31188BFF36F8FE3
:102A60009368986F704700BFF014002054B00000C6
:102A700000ED00E016498A684FF030001044EFF393
:102A8000098C80E8F01F202080F31288BFF36F8F3D
:102A9000104F4FF000664A698A603E604FF0700444
:102AA000141920680C4C2060506F0023536780F38A
:102AB000118802F1300090E8F01F8CF3098802F1D0
:102AC000000004B506F0FEF9BDE8044070470000C0
:102AD000F014002004ED00E08C1200201EF0040F22
:102AE0000CBFEFF30880EFF30980816911F8021C35
:102AF0000229FFD001B506F0D6F901BD42F8203C0D
:102B0000009B0B4942F81C3C019B21F0010142F85B
:102B1000183C029B42F8081C42F8143C4FF08073AA
:102B200042F8043C0023203A02654367704700BF27
:102B30005D0E00000A4B046F98600A4B1C60036E28
:102B400083F30B88104681F30988002163B681F373
:102B50001188BFF36F8F00220023FEF77FF900BFBB
:102B6000F01400208C12002001B5EFF30580A0F1D5
:102B700010004FEAC0000449014409C99847BDE864
:102B80000140024908470000CCAA0000ED2B0000DC
:102B9000114B124A2DE9F041D518013DB5FBF3F573
:102BA000DFF83C805D430F4B074608EB0304013C14
:102BB000B4FBF3F403FB04540E1B30460A4907F040
:102BC00086FE701942460021083E07F08DFE3E67E2
:102BD00004F10800BDE8F0810100000000000000E1
:102BE000040000000400000094AD0000044B99684C
:102BF0005869884203D003494FF080520A607047F9
:102C0000F014002004ED00E02DE9F04186B0064606
:102C10000D4600AF0224444B4FF482517B61434880
:102C20003C6107F1100206F051F9414B9B6ADB064B
:102C300078D5404B3D484FF48251C7E9044307F132
:102C4000100206F043F91120394B9B6A1C070BD583
:102C5000394B36487B6102234FF482513B6107F1C7
:102C6000100206F033F91220314CA36A990723D5DC
:102C7000E846324B07F110027B6102234FF4825188
:102C80003B612A4806F022F9636BA26A120612D54C
:102C900088B06A462A492548C2E9051303234FF440
:102CA000C25142F8103F06F011F9C5461EB1A36AA1
:102CB00023F08003A36213201D4B9B6ADE070BD514
:102CC000204B1A487B6102234FF482513B6107F18C
:102CD000100206F0FBF81420154B9B6A9C060BD5DE
:102CE000194B12487B6102234FF482513B6107F17B
:102CF000100206F0EBF815200D4B18379A6AD10632
:102D000058BF9A6A9A6A920642BF5A6A22F40052DF
:102D10005A629A6A42F0FF029A6200232B70BD4603
:102D2000BDE8F08110208FE757B500005CAD0000D2
:102D300000ED00E06DB50000A0B50000B3B50000E7
:102D4000CBB50000E1B5000000B600002DE9F04170
:102D500086B006460D4600AF0224474B4FF4825121
:102D60007B6146483C6107F1100206F0AFF8444B26
:102D70009B6AD9046DD5434B40484FF48251C7E953
:102D8000044307F1100206F0A1F817203C4B9B6AA0
:102D90001A050BD53C4B39487B6102234FF4825115
:102DA0003B6107F1100206F091F81820344CA36A39
:102DB0009B0523D5E846354B30487B61022307F15C
:102DC00010023B614FF4825106F080F8A36BA26AB7
:102DD000100412D588B06A462D492848C2E9051367
:102DE00003234FF4C25142F8103F06F06FF8C54676
:102DF0001EB1A36A23F40043A3621920204B9B6AEF
:102E000059050BD5234B1D487B6102234FF482519A
:102E10003B6107F1100206F059F81A20184B9A6A24
:102E2000D20518D51C4B15487B6102234FF4825103
:102E30003B6107F1100206F049F81B20104A1837D1
:102E4000936A43F47F43936200232B70BD46BDE831
:102E5000F08116209AE79B6A9B04EFD50F4B074839
:102E60007B6102234FF482513B6107F1100206F0AF
:102E70002DF81C20E2E700BF2FB600005CAD00007B
:102E800000ED00E045B60000A0B5000056B6000019
:102E90006FB6000084B600009FB6000000B60000C8
:102EA00010B586B002243E4B4FF482513D4804AA2F
:102EB0000593049406F00AF83B4B9B6A99016CD584
:102EC0003A4B38484FF4825104AACDE9044305F047
:102ED000FDFF1E20344B9B6ADA010AD5344B314882
:102EE000059302234FF4825104AA049305F0EEFFE8
:102EF0001F202D4B9B6ADB020AD502242D4B29484B
:102F00004FF4825104AA0593049405F0DFFF204694
:102F1000254B9B6A1C030AD5274B224805930223A5
:102F20004FF4825104AA049305F0D0FF21201E4BD8
:102F30009B6A59030AD5214B1A48059302234FF483
:102F4000825104AA049305F0C1FF2220164B9B6A0C
:102F50009A030AD51A4B1348059302234FF4825162
:102F600004AA049305F0B2FF23200F4B9B6ADB03F6
:102F70000AD5144B0B48059302234FF4825104AA3F
:102F8000049305F0A3FF2420074A936A6FEA0343E2
:102F90006FEA1343936206B010BD1D209AE700BF8D
:102FA000B7B600005CAD000000ED00E0CFB6000059
:102FB000E2B60000FCB6000026B7000044B70000EF
:102FC00069B7000083B700002DE9F0438BB07A4B5E
:102FD0000446D3F80480002600AFC8F3080586F342
:102FE0001188BFF36F8F02F07F43B3F17F4F0ED193
:102FF00002F00C03082B19D1704B4FF48251FB6186
:1030000002236F48BB6107F1180205F05FFF00263D
:1030100034460023FB71EB1E092B00F2AC80DFE885
:1030200003F00A9FA29BAAAAAAAAAAA510074CBFAE
:103030000C460126EDE7E9464FF00208614B07F127
:103040001802FB614FF482515D48C7F8188005F003
:103050003DFF0023584DFB71EB6A9A070BD55A4B85
:10306000C7E906834FF48251554807F1180205F06D
:103070002DFF002341E0EB6A002B01DA534BEFE711
:10308000EB6A5B00F5D5524B07F11802C7E90683DE
:103090004FF482514A4805F019FF6B69A26943F465
:1030A00080736B61BFF34F8FBFF36F8F6B6932F823
:1030B000022C23F480736B61BFF34F8FBFF36F8FCC
:1030C0004DF602739A4208D0AB6ADBB2002B36D0C1
:1030D0000120F91DFFF798FD40E088B023686A469B
:1030E0003C493748C2E9051303234FF4C25142F863
:1030F000103F05F0EBFECD462368FA79DAB907F107
:10310000080504F1200C2A4620686168083403C2CF
:1031100064451546F7D17A6A002E47D0C2F30801FC
:1031200021B96FEA52226FEA42227A62184607F109
:103130000801FFF7B9FB2C37BD46BDE8F083AB6A49
:1031400013F47F4F04D00120F91DFFF7FFFD05E0C8
:10315000AB6AB3F5803F8CD3FFF7A2FE0346CCE702
:103160000020F91DB6E70020F91DEEE71A4BFB61C0
:103170000223BB6176E7194A18F4F87FE8468AB063
:10318000174B18BF13466A461649103DC2E905138E
:103190004FF400731384144BD5614FF41151084858
:1031A00042F8103F05F092FEC54662E722F4FF7236
:1031B00022F00102B9E700BF00ED00E0DCB700003B
:1031C0005CAD000007B800001EB800003FB800006A
:1031D0004DB800006CB8000088B80000C3B700000C
:1031E000AEB70000ACB8000004000001044B5A69FF
:1031F00042F010025A615A6942F480625A61704783
:1032000000ED00E0EFF30880EFF3098101B57246AD
:10321000FFF7DAFE01BD00BF002320210348C218DA
:103220000133452B82F80013F9D1704700E100E02B
:10323000002080F31488BFF36F8F002080F30A888A
:1032400080F30B88FEF7CAF800200E490860BFF330
:103250004F8F0D4880F3088800F03EF8202080F35F
:1032600011880A484FF40061401880F30988EFF391
:1032700014800221084380F31488BFF36F8FFFF797
:10328000C3FB000094ED00E0902F002050220020AE
:10329000BFF34F8F0549064BCA6802F4E06213433F
:1032A000CB60BFF34F8F00BFFDE700BF00ED00E034
:1032B0000400FA05002318460649D1F89020C2F30D
:1032C0000722934200DB7047C1F89830C1F8A00094
:1032D0000133F6E700ED00E010B572B6002484F388
:1032E0001388FFF7E7FF23464FF0FF300C4A03F146
:1032F00020010133102B42F82100F8D100234FF0B8
:10330000FF30074A03F160010133102B42F821001E
:10331000F8D162B6BFF34F8FBFF36F8F10BD00BF00
:1033200000E100E0084B9B6883420BD1EFF305837B
:1033300043B1064B5A6842F080525A605A6A22F4EE
:1033400000425A6203F072BDF014002000ED00E06C
:103350001FB5094C094A23460121094800F02AF902
:1033600000230393074B0121E41A01A8019302945F
:1033700000F02AF904B010BD000007200000002072
:10338000D0AE0000D802002010B50C7A0B6804F013
:103390001F0223F01F031A43CB68640923F01F03A5
:1033A000054943EA440343F00103C1F89800C1F81A
:1033B0009C20C1F8A03010BD00ED00E080B500AF4A
:1033C00088B06A46074BC2E90530032342F8103F34
:1033D00000234FF4C2510448FEF702FE6FF01500BF
:1033E000BD4680BDC3B800004CAD00002DE9F04FD4
:1033F000144606464FF0000987B05F4D00AF796074
:103400007B68994535DAD6F80480B8F1000F54D0BE
:10341000B8F11F0F1BD918F01F0F18D1D6F800B044
:103420001BF01F0F13D1584605F053FD824608EBE1
:103430000B00013805F04DFD82451FD06FF0150AD5
:103440006C4688B06A464D49C2E9051A05E06C46EB
:1034500088B06A464A4BC2E90539032342F8103F57
:1034600000234FF4C2514748FEF7BAFDA5466FF05E
:10347000150420461C37BD46BDE8F08F1AF1160F23
:10348000DED05445DCDDC5F898A0D5F89C00C5F821
:1034900098A0D5F8A02020F01F0042F01F08D6E920
:1034A00000211144904201F1FF3B1ED1D84508D1C3
:1034B00031465FFA8AF005F015FD09F101090C3675
:1034C0009EE7C5F898A0D5F89C3021F01F0103F0C5
:1034D0001F030B433146C5F89C30E0B205F002FDF6
:1034E00010F1160FC3D0441CE7E7013AD845E0B20B
:1034F00022F01F02C5F898A008D1D5F8A0303146B7
:1035000003F01F031343C5F8A030E7E7D5F8A01078
:1035100001F01F010A43C5F8A020314605F0E2FC86
:1035200010F1160FA3D0C5F898A0D5F89C203B7CCD
:1035300008F1FF3862F304033B74D5F8A0303A7CFD
:103540005B0863F347123A74D6E900321344BB6058
:1035500023F01F03441C4344A3EB0B03E0B223F00E
:103560001F0307287B6102D9FFF728FFB8E707F19F
:103570000801FFF709FFB6E700ED00E00CB9000015
:10358000E9B800004CAD00000522044BC3F89420BC
:10359000BFF34F8FBFF36F8F704700BF00ED00E0A8
:1035A000BFF35F8F0022024BC3F89420704700BF27
:1035B00000ED00E010B5034C2278FFF717FF2070F4
:1035C00010BD00BF161700202DE9F74F294D8A4680
:1035D00006464FF00008AB46274FD0451BDAD6F819
:1035E0000490B9F1000F3FD031680846019105F011
:1035F00070FC0199044609EB0100013805F069FCF3
:1036000084424FF014021D4B08D002FB08F36FF008
:1036100015024BF8032003B0BDE8F08F14F1160F2C
:103620002C60F8D01978A142F5DD02FB08B0C7F88C
:103630009840C7F89840D7F89C4000F10801007BFB
:1036400064F304000871D7F8A0000C79400860F317
:1036500047140C71D7F89C1021F01F016960D7F84E
:10366000A01021F01F01296108F1010814350C3662
:10367000B3E700BF9012002000ED00E01617002015
:1036800038B50E4D2C68082C15D80020FFF788FFA0
:103690000B4B0C4AC3F8C020844205D10A4B0020D2
:1036A0001C70FFF771FF38BD696801EB0011FFF76F
:1036B0006BFE0130F0E74FF0FF30F4E7DCAE0000C6
:1036C00000ED00E0AAFF44001617002008B5024BE9
:1036D0001B689847002008BDA4120020034B044A31
:1036E0001860937843F0020393707047A41200208F
:1036F00094000020F0B587B007460E46144600211E
:10370000102268461D4607F0EFF802238DF80230BC
:10371000054B2A4621466846CDE90476019303F01D
:10372000F1FF07B0F0BD00BF258F000008B50649C6
:10373000064821F00701C1F1005202F5E02204F031
:10374000F9FC002008BD00BFE347002090430020A3
:103750001022174B70B5C3F840244FF47F03D3F801
:103760003021D3F83431072A1BD1023B032B02D876
:10377000104AD35CABB14FF0502401260025052040
:10378000C4F81866C4F8145605F08CFE3046C4F828
:10379000146605F087FEC4F81456C4F818560020C5
:1037A00070BD4FF050230022C3F81426F7E700BF86
:1037B000003000503EB90000084B70B5C31A0D46EA
:1037C00007499B10044659434022064805F0D1FBA7
:1037D0002B4601462046BDE870401847BC12002029
:1037E000B76DDBB654AA0000402373B50B4C0093B1
:1037F000041B0B460D460A49A41061430646094ABC
:10380000094805F0E2FB011E05DA30462B4602B0FE
:10381000BDE87040184702B070BD00BFBC12002068
:10382000B76DDBB63590000054AA00002DE9F843CF
:103830000022012106460520FFF7CCF8114801F0CF
:10384000F3F9114B984219D105F0FAFE00244FF01C
:103850001C090C27DFF834803569414609FB045008
:1038600004F010FD002807DB012307FB04551C446E
:10387000042CAB67F0D10020BDE8F8836FF00400A2
:10388000FAE700BFC53800000000AD0B04AF000030
:1038900001460C2300224B4370B50848C418783306
:1038A0001844D4E91C56226705F050FB2DB132466E
:1038B0002B46BDE870400248184770BDBC1200207E
:1038C00054AA0000062812D8DFE800F0040F1111F6
:1038D000110D0B00064B986F10F0070007D1FFF792
:1038E000D7BF0220FBE70320F9E70120F7E7704785
:1038F000BC12002008B54FF02003EFF3118183F3D1
:103900001288BFF36F8F124A136843F002001060F1
:10391000DA0708D481F31188BFF36F8FBDE8084040
:10392000012005F09FBE4FF05023D3F80C24D3F8AC
:103930000C34DB07EED5074805F008FB81F311884E
:10394000BFF36F8FBDE808400020FFF7A1BF00BFA5
:103950005C130020341300201FB500220123CDE9A1
:1039600002236B46084ACDF800D0CDF804D005F00C
:103970005AFB002805DB4FF480420023684602F022
:10398000DFFD05B05DF804FB6B90000010B54FF053
:103990002003EFF3118483F31288BFF36F8F074A7C
:1039A000136823F00201DB07116002D4012005F047
:1039B000B8FE84F31188BFF36F8F10BD5C13002035
:1039C0002DE9F041012207463749D1E8EF3FC1E830
:1039D000E02F0028F9D133B9344935484B60CB602A
:1039E0008A6004F062FC7B1E012B2BD8012F07D1CB
:1039F0004FF05023D3F81C3403F00303022B21D0E3
:103A000006F0C5FC0546F8B92A4B1B78E3B14FF028
:103A1000502302220646C3F808234FF05024DFF853
:103A20009880D4F81824D4F81834D20316D503F0AB
:103A30000303022B01D0012F10D175B386F3118837
:103A4000BFF36F8FBDE8F0814FF02003EFF31186D5
:103A500083F31288BFF36F8F0125DEE7C5B13046CF
:103A6000FEF710FFD4F81835DBB2012BD9D1D4F80A
:103A70000421002AD5D00022C4F80421D4F804215E
:103A80000222C4F818252022C8F88021A360C8E7C4
:103A90000021212003F0AAF9E4E74FF0502302228D
:103AA000C3F80423CEE700BFB8120020A8120020FC
:103AB000D8120020491B002000E100E008B50748AB
:103AC00006F00CFC38B10648FFF708FE0448FDF785
:103AD000BFF9002008BD6FF01200FBE790AA0000BC
:103AE000E53A00000A2838B50446074D04D1AB6812
:103AF0000D2128465B689847AB6803485B68E1B2D4
:103B00009847204638BD00BF90AA000030B54068F5
:103B100001F01F04057BB2F5001F85B044EA45148F
:103B200005D1204601F090FB002005B030BD0025F6
:103B3000B2F5800FCDE9025514D1B3F1007F0CBF6F
:103B4000042305238DF8083000232046194602AAD5
:103B500001F09CF9224B98423CD10121204601F012
:103B600027FBE1E7B3F1C06F27D0B3F1007F14BFAB
:103B7000012302238DF80830836823FA01F111F044
:103B80000101E1D1B2F1A07FDED104F01F0362098F
:103B900003F1800313D0012A1FD1124A52F82330B7
:103BA000DB07D1D40DF107052946204601F0AAFA1A
:103BB0000D4B984205D00395C6E70323DAE70B4A7D
:103BC000ECE7284601F0EEFA054B9842F3D06FF08F
:103BD0000B00AAE76FF01500A7E751F82330FFDECE
:103BE0000000AD0B002884500400AD0B002584506C
:103BF00010B501F0C7FA044668B901F09BFA084B0A
:103C000098420AD12146074801F076FA224605215A
:103C10000D20FEF7DFFE002010BD6FF00400FBE773
:103C20000000AD0B293C00004209034670B502D0EC
:103C3000012A17D070BD0D4E326951680029F9D0A4
:103C4000012503F01F030C689D400029F2D08A680B
:103C50002A4002D030464B6898472CB12368214651
:103C60001C46F2E7024EE7E72346F8E77CAA00008D
:103C700068AA00002DE9FF41476801F01F053B7B62
:103C8000144645EA43150E4628460DF1070101F09A
:103C900039FA14F4403F80460DD1284601F0FAFA73
:103CA0003C4B984503D19DF8070001F075FA0020C0
:103CB00004B0BDE8F08100232846194602AACDE9E8
:103CC000023301F0E3F8334B984214D1804503D11D
:103CD0009DF8070001F060FAA3034CD540F20633CB
:103CE0002340B3F5837F1AD00DD8062B18D005D802
:103CF000B3B1022B32D06FF01500D9E7B3F5807F56
:103D0000F9D101230CE040F20222934228D0B3F50E
:103D1000407F27D0B3F5007FEDD1022300E00723D9
:103D20008DF8083084F48033C3F30043E0068DF847
:103D300009304CBF0323C4F3401321038DF80A302C
:103D400012D501237A68B34093600022284602A965
:103D500001F054F90F4B9842A9D0CCE70423DFE7D8
:103D60000523DDE70323DBE7620341BF01237A6814
:103D7000B340D360E9E7E3064FF000034CBF0324F0
:103D8000C4F340141A46284602A98DF8084001F0F1
:103D90007DF8DFE70000AD0B10B504460269A8B05E
:103DA000C2F880002549002001F084FB0022012197
:103DB0002A20FEF70FFE64688422002107A806F07F
:103DC00093FD6368B3F5803F0AD31D4B059302232F
:103DD000049300234FF484511A4804AAFEF700F913
:103DE0002368B3F5803F0AD3174B0593022304934E
:103DF00000234FF48451134804AAFEF7F1F800237E
:103E00000120279307AA61680432D940C90744BF3B
:103E100000FA03F142F8041C2168D940C90748BFE1
:103E200000FA03F103F1010348BFD163102BEAD17B
:103E300007A801F057FB002028B010BD413F00004B
:103E4000ADB9000044AD0000D9B9000030B50F296C
:103E50000C46056987B042D843681B68CB40DB0736
:103E60003DD5D5F88430CB4003F001031AB913BB1C
:103E70006FF0770031E0002BFAD155F821304BB9C3
:103E8000184A0592022204924FF48451164804AA5B
:103E9000FEF7A6F8D5F8843013B92A20FEF76AFD9C
:103EA0000122D5F88430A2401343C5F88430E0B233
:103EB00001F038FB0AE0C8B201F03CFB0122D5F862
:103EC0008430A24023EA0203C5F88430D5F8843058
:103ED00013B92A20FEF75CFD002007B030BD6FF05B
:103EE0001500FAE705BA000044AD000030B50546FC
:103EF0000C4687B052B1104B059302230493002364
:103F00004FF484510D4804AAFEF76AF80F2C0FD81D
:103F10006B685B68E340DB070AD501230020A4003F
:103F2000E4B204F1A04404F52834236007B030BDA6
:103F30006FF01500FAE700BF35BA000044AD00008D
:103F400070B5D1F880600F2804460D46736886B0BE
:103F500003D81B68C340DB070AD4154B0593022323
:103F6000049300234FF48451124804AAFEF738F852
:103F7000D5F88430E34013F0010309D10E4A0592CD
:103F8000022204924FF484510A4804AAFEF728F84A
:103F900005EB840255F8245045B1002321463046F4
:103FA000AC46126C06B0BDE87040604706B070BD0C
:103FB00050BA000044AD00006CBA0000036803F082
:103FC0001F025B09026004D0012B034818BF0020C8
:103FD00070470248704700BF002884500025845075
:103FE0002DE9F04F154682464FF00108DFF8789131
:103FF00085B000EB8101514503D1002005B0BDE83B
:10400000F08FDAF8003003F07F04C3F343277F2CEE
:104010004FEA134308BF4FF0FF34222B00F2A18078
:10402000DFE803F012222A422D34429F9F9F9F45D2
:10403000719F9F9F9F9F9F9F9F9F747F82859F9F40
:104040009F888E9194979A00C5F80C45601C1AD0F1
:1040500003A80394FFF7B2FF0126039B08FA03F3BA
:1040600083604FF0010B2BE0C5F81445631C0AD0A8
:1040700000264FF0000B23E0C5F80845E6E7621C78
:10408000C5F808456BD10AF1040AB4E7631CC5F80A
:104090000C45F8D0012603A80394FFF78FFF039B7C
:1040A00008FA03F3C360DCE7C5F81045DEE7C5F89E
:1040B0000845002FDAD1671CE5D000260627B34655
:1040C000DAF8003003A803F40052002A1CBF0126CE
:1040D0004FF0000B01930394FFF770FF039A019BCD
:1040E00000EB8200D0F80022C3F3C1143B0243EA84
:1040F000840343EA0B0302EA0902134343EA46033B
:10410000C0F80032BFE7C5F80C45D2E7C5F86045F6
:10411000661CDAF80030B6D0C3F38033002BB9D078
:1041200096E7C5F86445F3E7C5F86845F0E7C5F8D4
:104130006C45EDE7C5F82445621CA4D0012698E73C
:10414000C5F8284582E7C5F83045F5E7C5F8344598
:10415000F2E7C5F83845EFE7C5F83C45ECE700263F
:1041600099E76FF0850049E7F0F0FCFFF0B54B7977
:10417000012B29D0032B24D110278B79032B20D19D
:10418000CE790EB1012E1CD10A79012A1ED0022A45
:1041900020D0B2B914460B684568B3F5164FD5F870
:1041A00000C06ED033D8B3F5165F6DD01CD8B3F510
:1041B000966F6BD010D8B3F5967F6AD0B3F5167FA3
:1041C0006AD06FF085005BE00027D6E74FF480747B
:1041D0000E22E0E70024FBE7B3F5166F5FD0B3F5DE
:1041E000965FEED1384B3CE0B3F5E14F5AD007D89B
:1041F000B3F5615F58D0B3F5964FE2D1334B30E061
:1042000047F61225AB42DCD14FF4000329E0B3F5A9
:10421000613F4BD013D8B3F5963F4AD009D84DF63D
:10422000C025AB4247D0B3F5614FCAD14FF46B0301
:1042300017E0B3F5E13FC4D14FF0EB7311E0B3F5F4
:10424000612F3BD008D8224DAB423AD0B3F5E12FD5
:10425000B7D14FF0E86304E01E4DAB42B1D14FF04F
:1042600080530569CCF8243543683A431B683443CE
:104270002243C3F86C252B1D03C983E803000020EB
:10428000F0BD4FF41D03ECE7134BEAE74FF49E2318
:10429000E7E74FF4A033E4E74FF41C33E1E74FF4D2
:1042A0001D23DEE70D4BDCE70D4BDAE74FF06C73B7
:1042B000D7E70C4BD5E74FF46503D2E74FF07063B7
:1042C000CFE74FF08063CCE700B0130000A04E00B2
:1042D00090D0030040420F000050270000C075003E
:1042E00000F03A0000903A012DE9F043804687B093
:1042F000002201210820FEF76DFB0820FEF73AFBA3
:104300000021D8F80470D8F810603C686A46C4F8F8
:104310000015C6F80080D7F80C90484604F007FF57
:10432000051E25DB009BD9F8002019791868FFF7D6
:1043300057FE051E1CDB4046311DFFF717FF0546E3
:10434000B0B97B68990723D506F11C0000F0D4FCB6
:10435000234B984210D0234B0593022304932B4602
:104360006FF004054FF482511F4804AAFDF738FE90
:10437000284607B0BDE8F083307F04F10C0204F555
:10438000907105F09BF80120337F984000F040FCCD
:104390000823C4F800353B7A53B9C4F81031D4F877
:1043A0001031B369C4F834350123C4F838352360BB
:1043B0007B689A075CBF4FF48073C4F804337B6852
:1043C000DB0644BF4FF48003C4F804337369C4F8B8
:1043D00044350023C4F848350123A360E360C7E7F0
:1043E0000000AD0BA2BA00007CAD0000F8B5044699
:1043F0000D46076905F0CBFFB0B9214B1B789BB187
:104400006426606804F075FF00BB012005F04AF8DF
:10441000013EF6D10021212002F0E8FCF0E781F313
:104420001188BFF36F8FF5E74FF02003EFF3118191
:1044300083F31288BFF36F8F60680E4604F059FF54
:1044400090B981F31188BFF36F8FEDE74FF0200330
:10445000EFF3118183F31288BFF36F8F60680E460C
:1044600004F047FF0028DAD07B6901221D70204646
:10447000796904F07EFE86F31188BFF36F8FF8BD73
:10448000491B00200123834070B5DC430B4AD2E86E
:10449000EF1F01EA0405C2E8E65F002EF7D14FF4F2
:1044A000803282400648C0F80823BFF35F8FBFF315
:1044B0006F8F0B4214BF0120002070BD0814002034
:1044C0000050015070B40E4922F07F46D1E900340B
:1044D000D01AC31844F10004C1E90034A6F5001352
:1044E000B3F5400F09D2074B1B681A0A1B069C192B
:1044F000054B42F10005C3E9004570BC02F0DEBD8A
:10450000200B00200C140020280B0020D9B101231F
:104510000D4A8340D2E8EFCF4CEA030CC2E8E1CF6A
:104520000029F7D14FF48033084A8340C2F804339E
:10453000074BD3E8AF3FC340DB0742BF4FF4001245
:10454000044BC3F8002170470814002000500150AC
:104550000014002000E100E0C3B202489B001844B0
:10456000704700BF40510150024B00F5A87053F84E
:1045700020007047005001500D4B1868010A0006DA
:10458000BFF35F8F0B4BD3F80435181841F10001CE
:10459000B3F5801F0AD2084BD3E90023904271EB98
:1045A000030303D210F1807041F10001704700BF96
:1045B0000C14002000500150280B00202DE9F04F72
:1045C00085B016461F4604469DF840A0FFF75AFFE7
:1045D0000190FFF7D1FFB04271EB070352D23B4B82
:1045E000301A67EB0101984271F100014DD2384B4E
:1045F00003EB0413D3E902239F4208BF964258D02D
:104600004FF48038334908FA04F8204626F07F4BEF
:10461000C1F8488304F015FF4FF00309584604F130
:104620005005AD00ADB205F1502504F5A87305F5B0
:1046300080350293029A20F07F4341F82230C1F87E
:104640004483D1F80435244AC01A033820F07F404F
:1046500090422ED9286868B1D1F80435A3EB0B003D
:1046600020F07F40B0F5000F039322D9204604F0DC
:10467000E8FE039BBAF1000F07D109EB030009F133
:104680000109D7E7BAF1000F09D06FF015052046F0
:104690000199FFF73BFF284605B0BDE8F08F0123E5
:1046A0000E4AA340D2E8EF0F1843C2E8E10F0029F9
:1046B000F8D107490E982301C8500F9B01EB041253
:1046C0000025C2E902675360E1E700BF01008000F6
:1046D000000B002000500150FDFF7F00001400205F
:1046E0007FB500254FF0FF304FF0FF314FF480329F
:1046F0001C4C1D4B0226C4F80833C4F848331B4B2E
:10470000C4F80855C3E90201C4F80423C3E906014B
:104710004FF400334FF40012C4F80433144B01215A
:10472000C4F804631520C3F880212A46FEF752F925
:104730001520FEF71FF901230322A36023600D4B10
:1047400028461A600C4B0D4A1E600D4BCDE90155F1
:1047500000930023FFF732FF3046FFF731F9284678
:1047600004B070BD0050015003000F00000B00208A
:1047700000E100E00814002004140020FFFF7F0087
:10478000C54400002DE9F04F394B85B0D3F8042320
:1047900092070BD5D3F8042142B10022C3F80421BB
:1047A000344AD3F80431136801331360324D0024C6
:1047B000A8464FF480362E4FD7F8043306FA04F992
:1047C00019EA030F2ED00123A340DB432B49D1E884
:1047D000EF2F02EA0300C1E8EC0FBCF1000FF6D1A5
:1047E00022FA04F3DB0703D4254B53F82430CBB172
:1047F000204604F026FEFFF7BFFE4FF02002EFF345
:10480000118382F31288BFF36F8F08EB041CDCE97D
:1048100002AB504571EB0B0102930AD283F311886E
:10482000BFF36F8F103514B105B0BDE8F08F0124D0
:10483000C2E70020D5E900134FF0FF3203934FF099
:10484000FF3328600A48CCE90223C0F84893204689
:1048500004F0F7FD029B83F31188BFF36F8F0029EB
:10486000E0D0039B524600935B468847DAE700BFDF
:10487000005001500C140020000B002000140020F8
:104880004051015070B501240C4B186890B1B0FA3A
:1048900080F0C0F11F0004FA00F1C943D3E8EF2F04
:1048A00002EA0105C3E8E65F002EF7D1C240D20755
:1048B000EBD570BD6FF00B00FBE700BF04140020C8
:1048C0000123054A8340D2E8EF0F1843C2E8E10F05
:1048D0000029F8D1704700BF041400201FB5431C05
:1048E00022D0012822DD124A124B9042D4BF044646
:1048F0001C46FFF741FE104B0E49D3E90023801AF6
:10490000B0F5000F28BF002404448C4228BF0C4699
:1049100000200A49A218CDE90100009143F10003EB
:10492000FFF74CFE04B010BD024CE2E70124E0E7C3
:10493000FEFF7F00FFFF7F00200B0020C54400002A
:1049400008B5FFF719FE024B1B68C01A08BD00BF6F
:10495000200B0020012310B5074C15206360FEF7E3
:1049600017F84FF40012054BC4F80833C4F8483365
:10497000034BC3F8802110BD0050015003000F000D
:1049800000E100E07FB5FDF747FA074B05930223EE
:104990000493064800234FF4825104AAFDF720FB3C
:1049A0000020FEF775FC00BFDBBA000024AD00005C
:1049B0004FF47F03D3F83021D3F83431072A05D1DF
:1049C000023B032B02D8024AD05C7047002070479C
:1049D00000BB000008B5FFF7EBFF58B1644BD3F8FC
:1049E000202A3AB90D21C3F8201A0121C3F81C1955
:1049F000C3F81C290022D30003F57F03D3F800136A
:104A0000013107D0D3F800130132D3F80433202A40
:104A10000B60F0D1FFF7CCFF002840F0A080FFF73B
:104A2000C7FF40B1534B544AC3F830254FF05023D1
:104A30000122C3F858254FF47F03D3F83021D3F86F
:104A40003431072A09D1023B032B06D84B4AD35CE9
:104A50001BB100224A4BC3F84C25FFF7A9FF50B108
:104A60004FF05023D3F80024D10742BF0022C3F8EF
:104A70001421C3F818214FF47F03D3F83021D3F861
:104A80003431072A09D14FF05023D3F80024D2073C
:104A900044BF6FF00102C3F80024FFF789FF18B18B
:104AA0006522334BC3F80C274FF47F03D3F8302132
:104AB000D3F83431072A16D1314BD3F82034002BE8
:104AC00011DA4FF050230322C3F8182501229A600F
:104AD000D3F80421002AFBD00022C3F804210122CC
:104AE000DA60C3F818254FF47F03D3F83021D3F8E8
:104AF0003431072A23D1023B032B02D8214AD35C4D
:104B0000EBB17E221A4B1B49C3F80C27C3F83C2992
:104B10007F231D4AC2F818310023C1F8043EC1F8B2
:104B2000083E01F54821C1F81031C2F82431C2F81D
:104B30002C3102F5FF1202F58052C2F8A032134A5E
:104B4000D2F88C3043F44063C2F88C30104A114BD9
:104B50001168C3F84415D269C3F84C2508BD292251
:104B6000034BC3F80C270322C3F83C2757E700BFC9
:104B700000400050009003504400EFBEFCBA00001B
:104B800000200350F8BA00000020005000ED00E0C3
:104B90000080FF000060005030B50468ACB1B4FA8A
:104BA00084F30122C3F11F03DBB29A4024EA02021C
:104BB000D0E8EF5FA54204D1C0E8EC2FBCF1000FB4
:104BC000F6D1EAD102480B7030BD0248FCE700BFC5
:104BD0000000AD0B0200AD0B10B50368CB40DB0746
:104BE00010D401238B40026843EA0201D0E8EF4F62
:104BF000944204D1C0E8EC1FBCF1000FF6D1F2D111
:104C0000014810BD0148FCE70000AD0B0400AD0BEE
:104C1000014BC3F80405704700700150014BC3F805
:104C20000805704700700150044B1A7922B901221F
:104C300018601A710248704702487047101400202B
:104C40000000AD0B0C00AD0B4FF0502310B5D3F8A6
:104C5000002152B10020C3F80001D3F80021012245
:104C6000C3F80823234B1B6898474FF05023D3F811
:104C7000042182B10022C3F80421D3F80421D3F81F
:104C80001824D3F81824022102F00302012A28D1A3
:104C9000C3F818159A604FF05023D3F8202162B161
:104CA0000022C3F82021D3F820214FF48072C3F8EA
:104CB0000823104B05201B6898474FF05023D3F86A
:104CC0002421AAB10022C3F82421D3F824214FF4CF
:104CD0000072C3F80823074B0620BDE810401B688C
:104CE0001847C3F80813034B01201B689847D2E705
:104CF00010BD00BF1014002001460148FFF74CBF53
:104D0000E40000200123044A83400146C2F808352C
:104D10000248FFF761BF00BF00700150E4000020AF
:104D2000036803F01F025B09026004D0012B0348F3
:104D300018BF002070470248704700BF0028845009
:104D400000258450034A4309D35C00F01F00184437
:104D5000C0B2704719BB000008B5FFF7F3FF034B63
:104D6000083033F81000C0F3401008BDE800002000
:104D700008B5FFF7E7FF034B083033F81000C0F326
:104D8000400008BDE800002008B5FFF7DBFF034B3B
:104D9000083033F81000400B08BD00BFE8000020C9
:104DA00070B50546FFF7CEFF0C4C083034F81030D4
:104DB0000E46DA0508D5C3F3432304EBC3022846A5
:104DC00054F8333052689847A3682BB131462846CF
:104DD000E268BDE87040184770BD00BFE8000020E1
:104DE00010B5FFF7AFFF124A083032F81030D9057E
:104DF0001CD5C3F3432123F4F85322F810300020CC
:104E000002F10E0434F8023F13F4807F03D0C3F3A1
:104E1000432399420AD001303028F3D1002342F8CD
:104E200031300448BDE81040FFF7D6BE10BD00BFCA
:104E3000E80000205C01002001460020F0B50125BB
:104E400006460F4A0F4C02F13043A3F551439B082D
:104E500005FA03F3194204D0176817B116601768F2
:104E600018430432A242EED1074BD3F87C2132B171
:104E70000022C3F87C21D3F87C3140F00040F0BD23
:104E800000D1005020D1005000D000502DE9FF414A
:104E9000054690461E46FFF755FF044609B32846CF
:104EA000FFF766FF18B12846FFF756FF28BB00231F
:104EB0000DF10F02CDE900338DF80E308DF80F3073
:104EC00028460B460DF10E0104F02DFC474A04F173
:104ED000080132F8113023F0020343F0010322F8F5
:104EE0001130B8F1000F32D0284698F80070D8F889
:104EF0000410FFF73DFF10B1F1B13D4829E03B48F8
:104F000004F1080C30F81C3023F02003DB04DB0C28
:104F100020F81C3081B1032FEFD8D8F8042092F884
:104F200000E07246920002F1A04202F550429FB9A1
:104F3000C2F81075C2F810752C4A04F1080132F855
:104F4000113023F01C0343EA870322F811301EBB03
:104F5000284804B0BDE8F081D2F8101543EA4E337A
:104F600021F00301C2F81015D2F8101543F0200308
:104F700021F44F3121F44071C2F81015D2F8108598
:104F8000290201F47C5141EA080141EA0741C2F8D3
:104F9000101520F81C30CFE72846D6E90076FFF739
:104FA0001FFF002FD4D0114DD5E90023974201D126
:104FB0009E4218D010480DF10F01FFF7EDFD0D4B8B
:104FC0009842C6D19DF80F2005EBC20308345E60FD
:104FD00035F8143045F8327043EA422343F48073C5
:104FE00025F81430B4E70022EEE700BFE800002007
:104FF0000400AD0B0000AD0B5C0100202DE9FF416A
:1050000004461646FFF79EFE054631B32046FFF7DD
:10501000AFFE20B92046FFF79FFE002863D1334F33
:1050200005F1080837F8183013F01C0F02D04B7840
:10503000012B58D001238DF80F3000234A1CCDE9F5
:10504000001320468B1C0DF10F0104F06CFB37F8A8
:10505000183043F0030327F818301EB9244804B071
:10506000BDE8F0812046FFF783FE00283BD096F88C
:1050700000C0002361461D4F05F1080037F81050AD
:10508000890025F0200501F1A041ED0401F5504112
:10509000ED0CC1F8103527F81050C1F810357278B2
:1050A000002ADBD0D1F81035B67823F4991323F415
:1050B000F853C1F8103512042302D1F810E502F4B8
:1050C000403203F47C531343320543EA0E0302F4E7
:1050D000801245EA4C35134345F02005C1F81035E0
:1050E00027F81050BAE70348B9E700BFE8000020EE
:1050F0000000AD0B0400AD0B014BC3E9020170478A
:10510000E800002010B50446FFF726FE50B1204607
:10511000FFF718FE044B083033F8103003485B0BE0
:105120000B7010BD0248FCE7E80000200000AD0B4A
:105130000400AD0B70B50F4C94F87860BEB90E4DFD
:105140006022314604F1100005F0CEFB0D20C5F8B9
:105150007C61D5F87C31FDF70DFC4FF00043C5F8BC
:1051600004330123054884F87830636770BD044830
:10517000FCE700BFE800002000D000500000AD0BAD
:105180000500AD0B034B93F87800003818BF0120E1
:10519000704700BFE800002001460148FFF71CBD32
:1051A0005801002001460148FFF7F6BC58010020D5
:1051B00037B50446FFF7D0FD08B32046FFF7D8FD0A
:1051C0000546E0B92046FFF7DFFD03B29B0003F17F
:1051D000A04202F5514203F1A043156003F550438C
:1051E0001268D3F8102542F00102C3F8102521B14E
:1051F0000123134A8340C2F8043303B030BD204674
:10520000FFF7A0FD0F4B083033F81030C3F38203D3
:10521000042B11D0052B11D001A80194FFF780FDBC
:10522000019B0169D94001F001010231204603B020
:10523000BDE8304004F0C0BA0321F7E70221F5E7EA
:1052400000D00050E800002010B50446FFF784FDB0
:10525000C0B12046FFF78CFDA0B92046FFF794FDB2
:1052600001230B4A8340C2F8083303B29B0003F1C9
:10527000A04303F55043D3F8102522F00302C3F8EE
:10528000102510BD2046BDE81040002104F094BA5E
:1052900000D0005073B50446FFF754FD1A4E00F1DC
:1052A000080536F81530DB072CD52046FFF7CCFF74
:1052B0002046FFF751FD68B12046FFF765FD00224B
:1052C00003B29B0003F1A04303F55043C3F810253C
:1052D000C3F810252046FFF783FD002301A826F818
:1052E00015300194FFF71CFD019B00EB8300D0F803
:1052F0000022064B134043F00203C0F8003204487A
:1053000002B070BD0348FBE7E8000020F0F0FCFFAE
:105310000000AD0B0400AD0B2DE9F04F604B87B0E2
:10532000D3F80403C0B240F00040FFF785FD051E2E
:1053300080F29980DFF86C91D9F820300493C9F895
:105340002030594B1A6A05921A624FF0000A0DF18B
:105350001008564B0AEB030B4CE093FAA3F3B3FA95
:1053600083F39BF80040019343EA44142046FFF77F
:10537000E9FC4F4B083033F810700120019B039477
:10538000DA0803F00703984018F80230B90823EA56
:10539000000308F8023003A8FFF7C2FC039BC7F321
:1053A0008206803350F823304A073746C3F301435F
:1053B0002CD520463946DEB2FFF7F2FC03A8039451
:1053C000FFF7AEFC039B803350F82330C3F3014357
:1053D0009E4207D10021204604F0EEF931462046D6
:1053E00004F0EAF903A80394FFF79AFC0123039A57
:1053F00093400362D8F80030002BAED108F10408C6
:10540000BAF1000F1DD14FF0010AA2E7022B0CD117
:105410000321204604F0D0F906F00503012BE1D169
:1054200039462046FFF7BCFCDCE702212046019309
:1054300004F0C2F9032EF3D0019B032BD2D1022E2C
:10544000EDE74FF00040FFF7F7FCD9F820301649A0
:105450000493C9F820300A6A134305920A627FF464
:1054600074AF25F00045012415B907B0BDE8F08FF1
:1054700095FAA5F3B3FA83F304FA03F29B0003F160
:10548000A04303F55043D3F81005D3F81015C0F32B
:105490000520C1F3014125EA0205FFF781FCE3E79E
:1054A00000D00050002584500028845029BB000003
:1054B000E800002070B5084C0E462379154643B924
:1054C0002A20FDF757FA0123044823712660A560BE
:1054D00070BD0348FCE700BF181400200000AD0BAE
:1054E0000C00AD0B002330B50D4A50F8234003F5F6
:1054F000A2710133102B42F82140F6D10023084A53
:1055000000F13C0103F5B27451F8045F0133102B34
:1055100042F82450F6D1D0F88030C2F8043330BDC0
:1055200000A002500123024A8340C2F804337047AE
:1055300000A002500123024A8340C2F8083370479A
:1055400000A00250F8B5012600270B4B0B4DD3F8F5
:105550000C4304B9F8BD94FAA4F0B0FA80F006FA4E
:1055600000F324EA0304064B82009F502B68002BB3
:10557000EFD0A9689847ECE700A00250181400206B
:1055800000A102502DE9F0410E4617460C4D55F88A
:10559000184FAC4203D16FF01200BDE8F0813146E4
:1055A00054F8440CA4F14408FAF73CFF30B9C7F8AA
:1055B00000804046BDE8F04104F001BA2468E8E705
:1055C0002414002010B5D0E909124A60416A00F1A4
:1055D00024031160C0E909334368044603B19847C6
:1055E000054B1A78062A05D95B681BB1072022688B
:1055F00002499847002010BD2414002042BB00003F
:105600002DE9F04107460D460B4E56F8084FB442BF
:1056100002D16FF001000AE0394654F8240CA4F1DD
:105620002408FAF7FFFE20B91DB1C5F80080BDE8D7
:10563000F0812468EBE700BF2414002010B5044675
:1056400000B30068F0B10378E3B10021FFF7D8FFA1
:10565000D8B104F11C03C4E907330D4B04F1240253
:10566000D96803F10800DA60A16260620A601A7802
:10567000062A05D95B681BB10720226805499847AF
:10568000002010BD6FF01500FBE76FF01000F8E789
:105690002414002044BB000010B5036893B11B78AC
:1056A00083B18368012B0DD8084B00F1440143609E
:1056B000074BDA6903F11804826444640020D9615D
:1056C000116010BD6FF01500FBE700BF6401002002
:1056D000241400200E4B10B5044620220021184649
:1056E00005F002F9226842600246217902F8081B9F
:1056F000C0E9022200F11002C0E9042200F1180200
:10570000C0E906222046BDE8104000F00FB800BFF7
:105710002414002008B500F011F8BDE8084020224C
:105720000021014805F0E0B82414002008B5024823
:10573000FFF784FF002008BD640100200148FFF747
:1057400041BF00BF640100200EB4431E062B33B5D9
:1057500088BF0020094B05AC54F8045B53F82010B7
:10576000074802F085FA21462846019402F07EFAA5
:1057700002B0BDE8304003B0704700BF34B0000055
:10578000F4B300002DE9F04F87B017469B4604465E
:10579000DDF840A000284BD0056A35B12D6825B151
:1057A000AC4607B0BDE8F04F6047A36A9F4242D8BD
:1057B0000026BE4203D1002007B0BDE8F08F1823B9
:1057C00003FB06F8D4F82C90A26909EB08052B1D01
:1057D0000593CAB9686969680368B5F80CC0C91A45
:1057E000AB680CF1030E5D1E05EB0C155B4205EB7F
:1057F0004E051D4005EBCC0385680633A94228BF42
:105800004FF0FF3104F0A8F859F808302046029311
:10581000236AB1B29B6A01935AF8263000935BF871
:105820002620059B04F010F90028C5D10136C0E7F9
:105830006FF01500C0E70148BEE700BF40F4FFFF6E
:1058400010B5044690B1828C43899A4209D0084B26
:105850001A78032A05D95B681BB142680549042000
:1058600098472046BDE8104004F0BEBF10BD00BF01
:1058700024140020EFBB000030B544898C4212D9BB
:10588000036A013C5D882C4003EBC40359609A60B5
:10589000BFF35B8F026A538801335380C38C01339B
:1058A000C384002030BD0148FCE700BF41F4FFFF86
:1058B00070B4039E144658B1006A48B143B1013434
:1058C00006D0002E04DB046F14B1A44670BC604700
:1058D000014870BC704700BF2DF8FFFF70B4039EF5
:1058E000144660B1006A50B14BB1013407D0002EAC
:1058F00005DBD0F8804014B1A44670BC6047014875
:1059000070BC70472DF8FFFF70B50C461146054678
:105910001E460C4B2022002908BF1946204604F0E1
:10592000FDFF049B6662A362059B2562E362069B02
:1059300023636A6804F13403C4E90D526B60A26BFF
:10594000136070BD10BC00002DE9FF47DDF83490F6
:105950000D4692461F46064600286CD000296AD0A4
:10596000B9F1000F67D001F15808404604F0D5F9AD
:10597000781C40D1AC6C05F1480314F001040BD045
:1059800000240134802C54D0620953F8222004F002
:105990001F01CA40D107F4D40121600953F8202027
:1059A00004F5806704F01F04A1400A4343F8202057
:1059B0000E9B5246CDE901930C9B3146009328463D
:1059C0003B46FFF7A1FF404600F096FD347874B1E6
:1059D00095F888405CB1B36A01332ED1002130467E
:1059E00004F0CAF9044610B1304604F09CF9204690
:1059F00004B0BDE8F087B7F5806FD9D3A7F5806311
:105A00007F2B05F148010FD8580951F8204003F0C9
:105A10001F0324FA03F2D2070BD4012202FA03F384
:105A2000234341F82030C3E7054C404600F064FDB5
:105A3000DDE7044CF9E7024CD9E70024D7E700BFC3
:105A40002DF8FFFF29F8FFFF2DE9F04385B00F4641
:105A5000904603A90D9A0546994604F09AFB044620
:105A6000E0B10C9E039BD5F8A4009E42A8BF1E4641
:105A70000168D0F808C0611A33464A46614528BF1C
:105A80004FF0FF3103F02EFF2346424639462846A9
:105A9000009604F01EFB05B0BDE8F0830048FAE76D
:105AA0002EF8FFFF38B50446E0B100F1580528464E
:105AB00004F0EFF9D4F898309B6953B9D4F88C40CE
:105AC000103C002C00DC084C284604F0E0F920468D
:105AD00038BD012BF7D1D4F8A00004F006F9A0F1ED
